{
  "abi": [
    {
      "type": "function",
      "name": "UPGRADE_INTERFACE_VERSION",
      "inputs": [],
      "outputs": [
        {
          "name": "",
          "type": "string",
          "internalType": "string"
        }
      ],
      "stateMutability": "view"
    },
    {
      "type": "function",
      "name": "decrement",
      "inputs": [],
      "outputs": [],
      "stateMutability": "nonpayable"
    },
    {
      "type": "function",
      "name": "getCount",
      "inputs": [],
      "outputs": [
        {
          "name": "",
          "type": "uint256",
          "internalType": "uint256"
        }
      ],
      "stateMutability": "view"
    },
    {
      "type": "function",
      "name": "increment",
      "inputs": [],
      "outputs": [],
      "stateMutability": "nonpayable"
    },
    {
      "type": "function",
      "name": "initialize",
      "inputs": [
        {
          "name": "initialOwner",
          "type": "address",
          "internalType": "address"
        }
      ],
      "outputs": [],
      "stateMutability": "nonpayable"
    },
    {
      "type": "function",
      "name": "owner",
      "inputs": [],
      "outputs": [
        {
          "name": "",
          "type": "address",
          "internalType": "address"
        }
      ],
      "stateMutability": "view"
    },
    {
      "type": "function",
      "name": "proxiableUUID",
      "inputs": [],
      "outputs": [
        {
          "name": "",
          "type": "bytes32",
          "internalType": "bytes32"
        }
      ],
      "stateMutability": "view"
    },
    {
      "type": "function",
      "name": "renounceOwnership",
      "inputs": [],
      "outputs": [],
      "stateMutability": "nonpayable"
    },
    {
      "type": "function",
      "name": "transferOwnership",
      "inputs": [
        {
          "name": "newOwner",
          "type": "address",
          "internalType": "address"
        }
      ],
      "outputs": [],
      "stateMutability": "nonpayable"
    },
    {
      "type": "function",
      "name": "upgradeToAndCall",
      "inputs": [
        {
          "name": "newImplementation",
          "type": "address",
          "internalType": "address"
        },
        {
          "name": "data",
          "type": "bytes",
          "internalType": "bytes"
        }
      ],
      "outputs": [],
      "stateMutability": "payable"
    },
    {
      "type": "function",
      "name": "version",
      "inputs": [],
      "outputs": [
        {
          "name": "",
          "type": "string",
          "internalType": "string"
        }
      ],
      "stateMutability": "pure"
    },
    {
      "type": "event",
      "name": "Initialized",
      "inputs": [
        {
          "name": "version",
          "type": "uint64",
          "indexed": false,
          "internalType": "uint64"
        }
      ],
      "anonymous": false
    },
    {
      "type": "event",
      "name": "OwnershipTransferred",
      "inputs": [
        {
          "name": "previousOwner",
          "type": "address",
          "indexed": true,
          "internalType": "address"
        },
        {
          "name": "newOwner",
          "type": "address",
          "indexed": true,
          "internalType": "address"
        }
      ],
      "anonymous": false
    },
    {
      "type": "event",
      "name": "Upgraded",
      "inputs": [
        {
          "name": "implementation",
          "type": "address",
          "indexed": true,
          "internalType": "address"
        }
      ],
      "anonymous": false
    },
    {
      "type": "error",
      "name": "AddressEmptyCode",
      "inputs": [
        {
          "name": "target",
          "type": "address",
          "internalType": "address"
        }
      ]
    },
    {
      "type": "error",
      "name": "ERC1967InvalidImplementation",
      "inputs": [
        {
          "name": "implementation",
          "type": "address",
          "internalType": "address"
        }
      ]
    },
    {
      "type": "error",
      "name": "ERC1967NonPayable",
      "inputs": []
    },
    {
      "type": "error",
      "name": "FailedCall",
      "inputs": []
    },
    {
      "type": "error",
      "name": "InvalidInitialization",
      "inputs": []
    },
    {
      "type": "error",
      "name": "NotInitializing",
      "inputs": []
    },
    {
      "type": "error",
      "name": "OwnableInvalidOwner",
      "inputs": [
        {
          "name": "owner",
          "type": "address",
          "internalType": "address"
        }
      ]
    },
    {
      "type": "error",
      "name": "OwnableUnauthorizedAccount",
      "inputs": [
        {
          "name": "account",
          "type": "address",
          "internalType": "address"
        }
      ]
    },
    {
      "type": "error",
      "name": "UUPSUnauthorizedCallContext",
      "inputs": []
    },
    {
      "type": "error",
      "name": "UUPSUnsupportedProxiableUUID",
      "inputs": [
        {
          "name": "slot",
          "type": "bytes32",
          "internalType": "bytes32"
        }
      ]
    }
  ],
  "bytecode": {
    "object": "0x60a060405230608052348015610013575f5ffd5b5061001c610021565b6100d3565b7ff0c57e16840df040f15088dc2f81fe391c3923bec73e23a9662efc9c229c6a00805468010000000000000000900460ff16156100715760405163f92ee8a960e01b815260040160405180910390fd5b80546001600160401b03908116146100d05780546001600160401b0319166001600160401b0390811782556040519081527fc7f505b2f371ae2175ee4913f4499e1f2633a7b5936321eed1cdaeb6115181d29060200160405180910390a15b50565b608051610ab76100f95f395f81816103e90152818161041201526105560152610ab75ff3fe60806040526004361061009a575f3560e01c80638da5cb5b116100625780638da5cb5b14610139578063a87d942c1461017f578063ad3cb1cc14610192578063c4d66de8146101c2578063d09de08a146101e1578063f2fde38b146101f5575f5ffd5b80632baeceb71461009e5780634f1ef286146100b457806352d1902d146100c757806354fd4d50146100ee578063715018a614610125575b5f5ffd5b3480156100a9575f5ffd5b506100b2610214565b005b6100b26100c23660046108e8565b610236565b3480156100d2575f5ffd5b506100db610255565b6040519081526020015b60405180910390f35b3480156100f9575f5ffd5b50604080518082019091526006815265076322e302e360d41b60208201525b6040516100e591906109ac565b348015610130575f5ffd5b506100b2610270565b348015610144575f5ffd5b507f9016d09d72d40fdae2fd8ceac6b6234c7706214fd39c1cd1e609a0528c199300546040516001600160a01b0390911681526020016100e5565b34801561018a575f5ffd5b505f546100db565b34801561019d575f5ffd5b50610118604051806040016040528060058152602001640352e302e360dc1b81525081565b3480156101cd575f5ffd5b506100b26101dc3660046109e1565b610283565b3480156101ec575f5ffd5b506100b2610387565b348015610200575f5ffd5b506100b261020f3660046109e1565b61039f565b5f5480156102335760015f5f82825461022d9190610a0e565b90915550505b50565b61023e6103de565b61024782610482565b610251828261048a565b5050565b5f61025e61054b565b505f516020610a625f395f51905f5290565b610278610594565b6102815f6105ef565b565b5f61028c61065f565b805490915060ff600160401b820416159067ffffffffffffffff165f811580156102b35750825b90505f8267ffffffffffffffff1660011480156102cf5750303b155b9050811580156102dd575080155b156102fb5760405163f92ee8a960e01b815260040160405180910390fd5b845467ffffffffffffffff19166001178555831561032557845460ff60401b1916600160401b1785555b61032e86610689565b61033661069a565b5f8055831561037f57845460ff60401b19168555604051600181527fc7f505b2f371ae2175ee4913f4499e1f2633a7b5936321eed1cdaeb6115181d29060200160405180910390a15b505050505050565b60015f5f8282546103989190610a21565b9091555050565b6103a7610594565b6001600160a01b0381166103d557604051631e4fbdf760e01b81525f60048201526024015b60405180910390fd5b610233816105ef565b306001600160a01b037f000000000000000000000000000000000000000000000000000000000000000016148061046457507f00000000000000000000000000000000000000000000000000000000000000006001600160a01b03166104585f516020610a625f395f51905f52546001600160a01b031690565b6001600160a01b031614155b156102815760405163703e46dd60e11b815260040160405180910390fd5b610233610594565b816001600160a01b03166352d1902d6040518163ffffffff1660e01b8152600401602060405180830381865afa9250505080156104e4575060408051601f3d908101601f191682019092526104e191810190610a34565b60015b61050c57604051634c9c8ce360e01b81526001600160a01b03831660048201526024016103cc565b5f516020610a625f395f51905f52811461053c57604051632a87526960e21b8152600481018290526024016103cc565b61054683836106a2565b505050565b306001600160a01b037f000000000000000000000000000000000000000000000000000000000000000016146102815760405163703e46dd60e11b815260040160405180910390fd5b336105c67f9016d09d72d40fdae2fd8ceac6b6234c7706214fd39c1cd1e609a0528c199300546001600160a01b031690565b6001600160a01b0316146102815760405163118cdaa760e01b81523360048201526024016103cc565b7f9016d09d72d40fdae2fd8ceac6b6234c7706214fd39c1cd1e609a0528c19930080546001600160a01b031981166001600160a01b03848116918217845560405192169182907f8be0079c531659141344cd1fd0a4f28419497f9722a3daafe3b4186f6b6457e0905f90a3505050565b5f807ff0c57e16840df040f15088dc2f81fe391c3923bec73e23a9662efc9c229c6a005b92915050565b6106916106f7565b6102338161071c565b6102816106f7565b6106ab82610724565b6040516001600160a01b038316907fbc7cd75a20ee27fd9adebab32041f755214dbc6bffa90cc0225b39da2e5c2d3b905f90a28051156106ef576105468282610787565b6102516107f9565b6106ff610818565b61028157604051631afcd79f60e31b815260040160405180910390fd5b6103a76106f7565b806001600160a01b03163b5f0361075957604051634c9c8ce360e01b81526001600160a01b03821660048201526024016103cc565b5f516020610a625f395f51905f5280546001600160a01b0319166001600160a01b0392909216919091179055565b60605f5f846001600160a01b0316846040516107a39190610a4b565b5f60405180830381855af49150503d805f81146107db576040519150601f19603f3d011682016040523d82523d5f602084013e6107e0565b606091505b50915091506107f0858383610831565b95945050505050565b34156102815760405163b398979f60e01b815260040160405180910390fd5b5f61082161065f565b54600160401b900460ff16919050565b6060826108465761084182610890565b610889565b815115801561085d57506001600160a01b0384163b155b1561088657604051639996b31560e01b81526001600160a01b03851660048201526024016103cc565b50805b9392505050565b8051156108a05780518082602001fd5b60405163d6bda27560e01b815260040160405180910390fd5b80356001600160a01b03811681146108cf575f5ffd5b919050565b634e487b7160e01b5f52604160045260245ffd5b5f5f604083850312156108f9575f5ffd5b610902836108b9565b9150602083013567ffffffffffffffff81111561091d575f5ffd5b8301601f8101851361092d575f5ffd5b803567ffffffffffffffff811115610947576109476108d4565b604051601f8201601f19908116603f0116810167ffffffffffffffff81118282101715610976576109766108d4565b60405281815282820160200187101561098d575f5ffd5b816020840160208301375f602083830101528093505050509250929050565b602081525f82518060208401528060208501604085015e5f604082850101526040601f19601f83011684010191505092915050565b5f602082840312156109f1575f5ffd5b610889826108b9565b634e487b7160e01b5f52601160045260245ffd5b81810381811115610683576106836109fa565b80820180821115610683576106836109fa565b5f60208284031215610a44575f5ffd5b5051919050565b5f82518060208501845e5f92019182525091905056fe360894a13ba1a3210667c828492db98dca3e2076cc3735a920a3ca505d382bbca26469706673582212201af9dbd2e604429584315ac4b92ed7c833ef21fc4ef4610535d7028a949f764564736f6c634300081e0033",
    "linkReferences": {}
  },
  "methodIdentifiers": {
    "UPGRADE_INTERFACE_VERSION()": "ad3cb1cc",
    "decrement()": "2baeceb7",
    "getCount()": "a87d942c",
    "increment()": "d09de08a",
    "initialize(address)": "c4d66de8",
    "owner()": "8da5cb5b",
    "proxiableUUID()": "52d1902d",
    "renounceOwnership()": "715018a6",
    "transferOwnership(address)": "f2fde38b",
    "upgradeToAndCall(address,bytes)": "4f1ef286",
    "version()": "54fd4d50"
  },
  "id": 12
}