{
  "abi": [
    {
      "type": "constructor",
      "inputs": [],
      "stateMutability": "nonpayable"
    },
    {
      "type": "function",
      "name": "UPGRADE_INTERFACE_VERSION",
      "inputs": [],
      "outputs": [
        {
          "name": "",
          "type": "string",
          "internalType": "string"
        }
      ],
      "stateMutability": "view"
    },
    {
      "type": "function",
      "name": "getCount",
      "inputs": [],
      "outputs": [
        {
          "name": "",
          "type": "uint256",
          "internalType": "uint256"
        }
      ],
      "stateMutability": "view"
    },
    {
      "type": "function",
      "name": "increment",
      "inputs": [],
      "outputs": [],
      "stateMutability": "nonpayable"
    },
    {
      "type": "function",
      "name": "initialize",
      "inputs": [
        {
          "name": "initialOwner",
          "type": "address",
          "internalType": "address"
        }
      ],
      "outputs": [],
      "stateMutability": "nonpayable"
    },
    {
      "type": "function",
      "name": "owner",
      "inputs": [],
      "outputs": [
        {
          "name": "",
          "type": "address",
          "internalType": "address"
        }
      ],
      "stateMutability": "view"
    },
    {
      "type": "function",
      "name": "proxiableUUID",
      "inputs": [],
      "outputs": [
        {
          "name": "",
          "type": "bytes32",
          "internalType": "bytes32"
        }
      ],
      "stateMutability": "view"
    },
    {
      "type": "function",
      "name": "renounceOwnership",
      "inputs": [],
      "outputs": [],
      "stateMutability": "nonpayable"
    },
    {
      "type": "function",
      "name": "transferOwnership",
      "inputs": [
        {
          "name": "newOwner",
          "type": "address",
          "internalType": "address"
        }
      ],
      "outputs": [],
      "stateMutability": "nonpayable"
    },
    {
      "type": "function",
      "name": "upgradeToAndCall",
      "inputs": [
        {
          "name": "newImplementation",
          "type": "address",
          "internalType": "address"
        },
        {
          "name": "data",
          "type": "bytes",
          "internalType": "bytes"
        }
      ],
      "outputs": [],
      "stateMutability": "payable"
    },
    {
      "type": "function",
      "name": "version",
      "inputs": [],
      "outputs": [
        {
          "name": "",
          "type": "string",
          "internalType": "string"
        }
      ],
      "stateMutability": "pure"
    },
    {
      "type": "event",
      "name": "Initialized",
      "inputs": [
        {
          "name": "version",
          "type": "uint64",
          "indexed": false,
          "internalType": "uint64"
        }
      ],
      "anonymous": false
    },
    {
      "type": "event",
      "name": "OwnershipTransferred",
      "inputs": [
        {
          "name": "previousOwner",
          "type": "address",
          "indexed": true,
          "internalType": "address"
        },
        {
          "name": "newOwner",
          "type": "address",
          "indexed": true,
          "internalType": "address"
        }
      ],
      "anonymous": false
    },
    {
      "type": "event",
      "name": "Upgraded",
      "inputs": [
        {
          "name": "implementation",
          "type": "address",
          "indexed": true,
          "internalType": "address"
        }
      ],
      "anonymous": false
    },
    {
      "type": "error",
      "name": "AddressEmptyCode",
      "inputs": [
        {
          "name": "target",
          "type": "address",
          "internalType": "address"
        }
      ]
    },
    {
      "type": "error",
      "name": "ERC1967InvalidImplementation",
      "inputs": [
        {
          "name": "implementation",
          "type": "address",
          "internalType": "address"
        }
      ]
    },
    {
      "type": "error",
      "name": "ERC1967NonPayable",
      "inputs": []
    },
    {
      "type": "error",
      "name": "FailedCall",
      "inputs": []
    },
    {
      "type": "error",
      "name": "InvalidInitialization",
      "inputs": []
    },
    {
      "type": "error",
      "name": "NotInitializing",
      "inputs": []
    },
    {
      "type": "error",
      "name": "OwnableInvalidOwner",
      "inputs": [
        {
          "name": "owner",
          "type": "address",
          "internalType": "address"
        }
      ]
    },
    {
      "type": "error",
      "name": "OwnableUnauthorizedAccount",
      "inputs": [
        {
          "name": "account",
          "type": "address",
          "internalType": "address"
        }
      ]
    },
    {
      "type": "error",
      "name": "UUPSUnauthorizedCallContext",
      "inputs": []
    },
    {
      "type": "error",
      "name": "UUPSUnsupportedProxiableUUID",
      "inputs": [
        {
          "name": "slot",
          "type": "bytes32",
          "internalType": "bytes32"
        }
      ]
    }
  ],
  "bytecode": {
    "object": "0x60a060405230608052348015610013575f5ffd5b5061001c610021565b6100d3565b7ff0c57e16840df040f15088dc2f81fe391c3923bec73e23a9662efc9c229c6a00805468010000000000000000900460ff16156100715760405163f92ee8a960e01b815260040160405180910390fd5b80546001600160401b03908116146100d05780546001600160401b0319166001600160401b0390811782556040519081527fc7f505b2f371ae2175ee4913f4499e1f2633a7b5936321eed1cdaeb6115181d29060200160405180910390a15b50565b608051610a5e6100f95f395f81816103ab015281816103d401526105180152610a5e5ff3fe60806040526004361061008f575f3560e01c8063a87d942c11610057578063a87d942c14610160578063ad3cb1cc14610173578063c4d66de8146101a3578063d09de08a146101c2578063f2fde38b146101d6575f5ffd5b80634f1ef2861461009357806352d1902d146100a857806354fd4d50146100cf578063715018a6146101065780638da5cb5b1461011a575b5f5ffd5b6100a66100a13660046108aa565b6101f5565b005b3480156100b3575f5ffd5b506100bc610214565b6040519081526020015b60405180910390f35b3480156100da575f5ffd5b50604080518082019091526006815265076312e302e360d41b60208201525b6040516100c6919061096e565b348015610111575f5ffd5b506100a661022f565b348015610125575f5ffd5b507f9016d09d72d40fdae2fd8ceac6b6234c7706214fd39c1cd1e609a0528c199300546040516001600160a01b0390911681526020016100c6565b34801561016b575f5ffd5b505f546100bc565b34801561017e575f5ffd5b506100f9604051806040016040528060058152602001640352e302e360dc1b81525081565b3480156101ae575f5ffd5b506100a66101bd3660046109a3565b610242565b3480156101cd575f5ffd5b506100a6610346565b3480156101e1575f5ffd5b506100a66101f03660046109a3565b61035e565b6101fd6103a0565b61020682610444565b610210828261044c565b5050565b5f61021d61050d565b505f516020610a095f395f51905f5290565b610237610556565b6102405f6105b1565b565b5f61024b610621565b805490915060ff600160401b820416159067ffffffffffffffff165f811580156102725750825b90505f8267ffffffffffffffff16600114801561028e5750303b155b90508115801561029c575080155b156102ba5760405163f92ee8a960e01b815260040160405180910390fd5b845467ffffffffffffffff1916600117855583156102e457845460ff60401b1916600160401b1785555b6102ed8661064b565b6102f561065c565b5f8055831561033e57845460ff60401b19168555604051600181527fc7f505b2f371ae2175ee4913f4499e1f2633a7b5936321eed1cdaeb6115181d29060200160405180910390a15b505050505050565b60015f5f82825461035791906109bc565b9091555050565b610366610556565b6001600160a01b03811661039457604051631e4fbdf760e01b81525f60048201526024015b60405180910390fd5b61039d816105b1565b50565b306001600160a01b037f000000000000000000000000000000000000000000000000000000000000000016148061042657507f00000000000000000000000000000000000000000000000000000000000000006001600160a01b031661041a5f516020610a095f395f51905f52546001600160a01b031690565b6001600160a01b031614155b156102405760405163703e46dd60e11b815260040160405180910390fd5b61039d610556565b816001600160a01b03166352d1902d6040518163ffffffff1660e01b8152600401602060405180830381865afa9250505080156104a6575060408051601f3d908101601f191682019092526104a3918101906109db565b60015b6104ce57604051634c9c8ce360e01b81526001600160a01b038316600482015260240161038b565b5f516020610a095f395f51905f5281146104fe57604051632a87526960e21b81526004810182905260240161038b565b6105088383610664565b505050565b306001600160a01b037f000000000000000000000000000000000000000000000000000000000000000016146102405760405163703e46dd60e11b815260040160405180910390fd5b336105887f9016d09d72d40fdae2fd8ceac6b6234c7706214fd39c1cd1e609a0528c199300546001600160a01b031690565b6001600160a01b0316146102405760405163118cdaa760e01b815233600482015260240161038b565b7f9016d09d72d40fdae2fd8ceac6b6234c7706214fd39c1cd1e609a0528c19930080546001600160a01b031981166001600160a01b03848116918217845560405192169182907f8be0079c531659141344cd1fd0a4f28419497f9722a3daafe3b4186f6b6457e0905f90a3505050565b5f807ff0c57e16840df040f15088dc2f81fe391c3923bec73e23a9662efc9c229c6a005b92915050565b6106536106b9565b61039d816106de565b6102406106b9565b61066d826106e6565b6040516001600160a01b038316907fbc7cd75a20ee27fd9adebab32041f755214dbc6bffa90cc0225b39da2e5c2d3b905f90a28051156106b1576105088282610749565b6102106107bb565b6106c16107da565b61024057604051631afcd79f60e31b815260040160405180910390fd5b6103666106b9565b806001600160a01b03163b5f0361071b57604051634c9c8ce360e01b81526001600160a01b038216600482015260240161038b565b5f516020610a095f395f51905f5280546001600160a01b0319166001600160a01b0392909216919091179055565b60605f5f846001600160a01b03168460405161076591906109f2565b5f60405180830381855af49150503d805f811461079d576040519150601f19603f3d011682016040523d82523d5f602084013e6107a2565b606091505b50915091506107b28583836107f3565b95945050505050565b34156102405760405163b398979f60e01b815260040160405180910390fd5b5f6107e3610621565b54600160401b900460ff16919050565b6060826108085761080382610852565b61084b565b815115801561081f57506001600160a01b0384163b155b1561084857604051639996b31560e01b81526001600160a01b038516600482015260240161038b565b50805b9392505050565b8051156108625780518082602001fd5b60405163d6bda27560e01b815260040160405180910390fd5b80356001600160a01b0381168114610891575f5ffd5b919050565b634e487b7160e01b5f52604160045260245ffd5b5f5f604083850312156108bb575f5ffd5b6108c48361087b565b9150602083013567ffffffffffffffff8111156108df575f5ffd5b8301601f810185136108ef575f5ffd5b803567ffffffffffffffff81111561090957610909610896565b604051601f8201601f19908116603f0116810167ffffffffffffffff8111828210171561093857610938610896565b60405281815282820160200187101561094f575f5ffd5b816020840160208301375f602083830101528093505050509250929050565b602081525f82518060208401528060208501604085015e5f604082850101526040601f19601f83011684010191505092915050565b5f602082840312156109b3575f5ffd5b61084b8261087b565b8082018082111561064557634e487b7160e01b5f52601160045260245ffd5b5f602082840312156109eb575f5ffd5b5051919050565b5f82518060208501845e5f92019182525091905056fe360894a13ba1a3210667c828492db98dca3e2076cc3735a920a3ca505d382bbca2646970667358221220c4862b90647da3736ea8d7735fbf477defab9c10758453fb03227fa63e8c96e264736f6c634300081e0033",
    "linkReferences": {}
  },
  "methodIdentifiers": {
    "UPGRADE_INTERFACE_VERSION()": "ad3cb1cc",
    "getCount()": "a87d942c",
    "increment()": "d09de08a",
    "initialize(address)": "c4d66de8",
    "owner()": "8da5cb5b",
    "proxiableUUID()": "52d1902d",
    "renounceOwnership()": "715018a6",
    "transferOwnership(address)": "f2fde38b",
    "upgradeToAndCall(address,bytes)": "4f1ef286",
    "version()": "54fd4d50"
  },
  "id": 61
}